:020000040800F2
:100000001807002065020008551600084D16000864
:10001000511600085D0400083D18000800000000AB
:100020000000000000000000000000007D17000834
:10003000610400080000000059160008811700083C
:100040007F0200087F0200087F0200087F0200088C
:100050007F0200087F0200087F0200087F0200087C
:100060007F0200087F0200087F0200087F0200086C
:100070007F0200087F0200087F0200087F0200085C
:100080007F0200087F0200087F02000800000000D5
:100090000000000000000000000000007F020008D7
:1000A0007F0200087F0200087F0200087F0200082C
:1000B0007F0200087F0200087F0200087F0200081C
:1000C0007F0200087F0200087F0200087F0200080C
:1000D0007F0200087F0200087F0200080000000085
:1000E0007F0200087F0200087F0200080000000075
:1000F0000000000000000000000000007F02000877
:10010000000000007F0200087F0200087F02000854
:1001100000000000000000000000000000000000DF
:100120007F0200087F0200087F0200087F020008AB
:100130007F02000800000000000000000000000036
:100140000000000000000000000000007F02000826
:100150007F0200087F0200087F0200087F0200087B
:100160007F0200087F02000800000000000000007D
:10017000000000000000000000000000000000007F
:10018000000000007F0200080000000000000000E6
:100190007F0200087F02000800F002F800F052F829
:1001A00014A696E8000CB244B344DA4501D100F03D
:1001B00049F8BAE80F000FA696E83000A5EB040551
:1001C00004EB0607AAEB0704A7F101074FEA151590
:1001D0004FEA3414A4F10104AC4201D300F032F828
:1001E00013F0010F18BFFB1A43F0010300F001F8F0
:1001F000DBE71847F417000014180000103A24BF7A
:1002000078C878C1FAD8520724BF30C830C144BF7B
:1002100004680C6070470000704700000023002451
:1002200000250026103A28BF78C1FBD8520728BF06
:1002300030C148BF0B6070471FB501F0C0FB1FBD48
:1002400010B510BD00F0D0F81146FFF7F5FF01F032
:10025000F7FA00F0EEF803B4FFF7F2FF03BC00F08A
:10026000F5F800000948804709480047FEE7FEE727
:10027000FEE7FEE7FEE7FEE7FEE7FEE7FEE7FEE756
:1002800004480549054A064B704700002918000834
:100290009901000818010020180700201803002009
:1002A0001803002053EA020C00F069802DE9F04B9E
:1002B0004FF00006002B1FBFB3FA83F503FA05F4D5
:1002C00024FA05F65E4012BF1643B2FA82F502FA2E
:1002D00005F4C5F120051EBF22FA05FC44EA0C0412
:1002E000203556EA044C4FEA144418BF641C4FF002
:1002F00000084FF00009904271EB030C39D300293C
:1003000019BFB1FA81F701FA07F6B0FA80F700FADF
:1003100007F6C7F120071EBF20FA07FC46EA0C06C5
:100320002037B6FBF4FCA7EB0507103F07F01F0BC7
:10033000CBF120062CFA06F60CFA0BFB44BFB346B1
:100340000026202FA4BF5E464FF0000B5BEA060C90
:1003500008BF4FF0010B19EB0B0948EB0608ABFB8C
:10036000027C06FB02CC0BFB03CCC01B71EB0C0127
:10037000C1E70B46024641464846BDE8F08B13B53F
:10038000084318BF4FF0FF300146AFF30080BDE8CF
:100390001C4070474FF0000200B513469446964645
:1003A000203922BFA0E80C50A0E80C50B1F1200188
:1003B000BFF4F7AF090728BFA0E80C5048BF0CC036
:1003C0005DF804EB890028BF40F8042B08BF704794
:1003D00048BF20F8022B11F0804F18BF00F8012B06
:1003E0007047704770477047754600F02BF8AE466F
:1003F00005006946534620F00700854618B020B531
:10040000FFF73EFFBDE820404FF000064FF0000729
:100410004FF000084FF0000BAC46ACE8C009ACE868
:10042000C009ACE8C009ACE8C00921F007018D465D
:10043000704710B50446AFF300802046BDE8104079
:10044000FFF709BF0048704710000020014918203D
:10045000ABBEFEE72600020070470000FEE700008A
:1004600070470000F0B581B00022009290F83C2067
:10047000012A03D1022001B0F0BD00BF0F680123A3
:100480001FFA87FC80F83C304FEA4C0307EB470229
:1004900013FA87F31024092F88BFA3F11E0288BF27
:1004A0000C2403684FF0070E1E590EFA02F5AE43F6
:1004B0001E518E681D5906FA02F22A431A514968E4
:1004C000062907D801EB81014A1F194651F8345F0C
:1004D0000FE000BF0C2901EB810105D8A1F1230237
:1004E000194651F8305F04E0A1F14102194651F874
:1004F0002C5F1F26964025EA06060E600CFA02FEC7
:1005000042F2043C0A68C4F2010CACF5417642EABE
:100510000E02B3420A6005D0002180F83C10002092
:1005200001B0F0BD1221112FC1F2000118BF8F429E
:100530003AD1DCF800208F4222F48002CCF800206F
:10054000DCF8002042F40002CCF80020E4D140F2B4
:100550000801C2F2000109684DF68362C4F21B3241
:10056000A1FB0212910C01EB81014900009100995D
:100570000029D1D000990139009100990029CBD0F0
:1005800000990139009100990029C5D000990139DD
:10059000009100990029BFD000990139009100997C
:1005A0000029E7D1B8E700BF122FB5D1DCF8001061
:1005B00021F40001CCF80010DCF8001041F48001B7
:1005C000CCF80010A8E700000068C06C704700007D
:1005D000002804BF0120704710B5016C00293DD0F0
:1005E000016CC90645D4016C41F2021291430231FB
:1005F00042F204320164C4F20102116821F4403174
:100600001160136890E812102343D0F810E01360D3
:100610004A68012422F480724A604A68C0F6007475
:1006200042EA0E224A604A6822F040724A604A68F2
:1006300042EA0C024A608A6822F400628A60C26858
:100640008B681A438A60826A8B68A24223F07063C7
:100650008B608B6810D123F0405216E0044600F006
:1006600065F820460021616484F83C10016CC906DD
:10067000B9D5012153E000BF1A438A608A6822F08D
:1006800040528A60C26A8B681A438A608A6822F084
:1006900002028A608A68037E90F8204042EA4302A0
:1006A0008A604A6884B142F400624A604A684EF245
:1006B000000322F460424A60426ACFF6FF734C683E
:1006C00003EB4232224301E022F400624A60CA6A2C
:1006D00040F2000C22F47002CA62C3694269CFF68C
:1006E000F07CCC6A0CEB03532343CB628B6823F47E
:1006F00000738B6090F830308C6844EA43238B6041
:100700008B6823F480638B608B6843EA82228A6063
:1007100000214164026C012363F3010202640022A0
:1007200080F83C20BDE810400846704780B586B090
:1007300042F200010068C4F20101002288420592E1
:10074000CDE903220292019202D006B080BD00BF23
:1007500043F630000092C4F20200436943F4807310
:100760004361436903F480730093009B0092036824
:1007700043F001030360006800F00100009000985E
:10078000012001900320CDE9020201F5604001A99A
:1007900000F038F906B080BD70B5044600680D461B
:1007A0008268520544BF80685FEAC05038D400F0C8
:1007B000FFF921680A68920749D40646681C3CD0B4
:1007C000DDB90868800721D5086880073FD408682C
:1007D00080071BD50868800739D40868800715D5BD
:1007E0000868800733D4086880070FD50868800739
:1007F000E7D52CE00868800729D400F0D9F9801BE0
:100800002168A842F6D908688007F3D4206C40F02C
:1008100004002064002084F83C00032070BD00BF69
:10082000206C40F020002064002084F83C0001206F
:1008300070BD00BF0868800709D40868800706D427
:10084000086880075CBF08685FEA8070F2D56FF0C7
:1008500012000860206C40F400702064886810F07A
:10086000405F01D0002070BD207E0028FAD1C86A08
:1008700010F4700F02D088684005F3D4206C20F487
:1008800080702064206CC004ECD4206C40F0010027
:100890002064002070BD000010B581B000210091DF
:1008A00090F83C10012903D1022001B010BD00BF17
:1008B0000468012180F83C10214651F8083FDB070D
:1008C00029D10B684DF6836243F001030B6040F2BF
:1008D0000803C2F200031B68C4F21B32A3FB02230D
:1008E0009A0C02EB42020092009AA2B1009A013ADD
:1008F0000092009A7AB1009A013A0092009A52B19D
:10090000009A013A0092009A2AB1009A013A0092A4
:10091000009A002AEAD10A68036CD2070CD143F08E
:100920001001016400F1440101200A6810430860CD
:10093000002001B010BD00BF40F2017223EA0202A4
:1009400002F5807202646268520504D5026C0123CC
:1009500063F30D320264026C4FF0000C0023D204EA
:1009600044BF426C22F0060342F2000E436480F85A
:100970003CC06FF02200C4F2010E2060DEF80403D8
:10098000C00609D074450BD1DEF8080010F0405FB6
:1009900006D14FF08040C8E7086810F0405FF8D0FB
:1009A000002001B010BD000090F83C10012904BFE8
:1009B0000220704701688A6822F001028A60896813
:1009C000C90705D1016C41F2011291430131016463
:1009D000002180F83C10002070470000B0B50446AC
:1009E00000F0E6F8054640F20000C2F20000007890
:1009F000611C18BF044400BF00F0DAF8401BA0429D
:100A0000FAD3B0BD2DE9F04F83B000F1200200F120
:100A10003E4741F20005009207F1FF77C4F202055C
:100A200007224FEAB726A84208BF042200254FF04C
:100A300000084FF00009042E38BF4FEAB722019298
:100A40000AE000BF09F1010908F10208B9F1100F2D
:100A500005F1040500F0A2800F68012202FA09FEE8
:100A600017EA0E0AEED0D1F804C003220CF00307F7
:100A70007E1E02FA08F4012E6FEA040B12D8846875
:100A8000CE6804EA0B0406FA08F63443846044682E
:100A900024EA0E06CCF3001404FA09F42643466057
:100AA00004E000BF032F01D103271EE0C6688C6855
:100AB00006EA0B0604FA08F42643022FC66014D196
:100AC0006FF00302009E02EA590756F807C005F0CE
:100AD0001C040F220B69A2402CEA0202A3401A4315
:100AE000F251D1F804C00CF00307026807FA08F3CA
:100AF00002EA0B021A431CF4403F0260A2D000221B
:100B000043F644030292C4F202031A6843F6004417
:100B100042F480421A601A68C4F2010402F480426E
:100B20000292029A29F003024FF6084C2244CFF6B3
:100B3000FF7C52F80C3005F00C070F26BE40B34383
:100B4000019E06FA07F73B4342F80C30A2684B6857
:100B500042EA0A0743F60C4CDE0258BF22EA0A07B3
:100B6000A760C4F2010CDCF800209E0242EA0A07EA
:100B700058BF22EA0A07CCF8007062689E0342EA76
:100B80000A0758BF22EA0A0767602268DB0342EAC5
:100B90000A0758BF22EA0A07276053E703B0BDE8F7
:100BA000F08F0000002A08BF09048161704700002F
:100BB00040F21410C2F200000068704740F20000DA
:100BC00040F21411C2F20000C2F2000100780A687B
:100BD000104408607047000080B543F60040C4F23E
:100BE0000200016841F400710160016841F4806114
:100BF0000160016841F480710160032000F074F825
:100C00000F2000F005F800F027F8002080BD00005C
:100C100070B540F20006C2F2000640F208013278D8
:100C2000C2F200014FF47A730968B3FBF2F2044692
:100C3000B1FBF2F1084600F0F3FC0F2C4FF0010578
:100C400008D838B94FF0FF3021460022002500F0C7
:100C50001FF87460284670BD82B0002043F6400142
:100C60000190C4F202014A6842F480424A604A6834
:100C700002F480420192019A0090086840F080508E
:100C80000860086800F080500090009802B070473B
:100C900010B54EF60C5CCEF2000CDCF80030C3F35D
:100CA000022E8EF00704042C28BF0424BEF1030397
:100CB0004FF0FF3E0EFA04F438BF0023A1439940E1
:100CC0000EFA03F39A43114300F00F0200F1604360
:100CD0000901043A03F564436244002848BF02F165
:100CE0000C03197010BD00004EF60C51CEF200013D
:100CF0000A684FF6FF031A4060F30A2242F0806050
:100D000040F0FD7008607047002804BF0120704764
:100D10002DE9F04143F60808C4F202080446D8F869
:100D2000F8030D4600F00700814207D988F8F85310
:100D3000D8F8F80300F00700A84277D120688107AF
:100D400017D5410705D5D8F8001041F4E051C8F88F
:100D50000010010705D5D8F8001041F46041C8F82B
:100D60000010D8F80010A26821F0F0011143C8F873
:100D70000010C00740D1D8F8F80300F00700854202
:100D800007D288F8F853D8F8F80300F00700A84213
:100D90004CD12068410707D5D8F80010E26821F44B
:100DA000E0511143C8F80010000708D5D8F800003A
:100DB000216920F4604040EAC100C8F8000000F05A
:100DC00055F8D8F8001041F6D812C1F30311C0F657
:100DD0000002515C40F2080220FA01F140F20400E6
:100DE000C2F200000068C2F200021160FFF710FFBB
:100DF0000020BDE8F08100BF6068811E022907D293
:100E000058F8081C89015CBF0120BDE8F08111E0A1
:100E1000012807D158F8081C89035CBF0120BDE8F0
:100E2000F08107E058F8081C890703D40120BDE8C9
:100E3000F08100BFD8F8001021F003010843C8F882
:100E40000000FFF7B5FE064641F28837D8F80000EB
:100E5000616800F00C00B0EB810F8CD0FFF7A8FEAA
:100E6000801BB842F2D90320BDE8F08110B543F6EB
:100E70000404C4F202046168C1F3810142F200403B
:100E8000C0F2F400DFE801F002040A0210BD00BF66
:100E900047F64000C0F27D1010BD00BF20682168F9
:100EA0002368490247F64001C0F27D1100F03F027D
:100EB000C3F388105CBF42F20041C0F2F401A1FB11
:100EC00000010023FFF7EEF921680222C1F301417E
:100ED00002EB4101B0FBF1F010BD0000002804BF9F
:100EE000012070472DE9F04182B00446007843F6B6
:100EF0000006C007C4F202060CD0B06800F00C0077
:100F0000042840F081803068800303D560680028A1
:100F100000F06881207880071BD5B06810F00C0FB6
:100F200009D0B06800F00C00082840F08780706895
:100F3000400200F183803068800703D5E068012813
:100F400040F050813068216920F0F80040EAC1008B
:100F500030602078000713D4207840072AD4A56990
:100F6000002D00F03A81B06800F00C00082840F035
:100F7000A580012D40F00E81012002B0BDE8F08176
:100F80006069002800F082800020C4F2472001211F
:100F9000C0F8801EFFF70CFE054600BF706F80078B
:100FA000DAD4FFF705FE401B0228F7D9032002B070
:100FB000BDE8F081306C5FEAC0080AD400200190DF
:100FC000306C40F080503064306C00F08050019004
:100FD000019847F20007C4F200073868C00547D4FB
:100FE000386840F480703860FFF7E2FD054600BFC6
:100FF0003868C0053CD4FFF7DBFD401B0228F7D959
:10100000032002B0BDE8F081B06800F00C000828B1
:1010100003D1706840023FF576AF61683068B1F582
:10102000803F07D0B1F5A02F40F09A8040F4802097
:101030003060306840F4803030609AE0E06800282A
:1010400040F20000C4F247205CD001210160FFF7AC
:10105000AFFD0546306880073FF574AFFFF7A8FD88
:10106000401B0228F6D9032002B0BDE8F08100BF82
:10107000A168306F012905D0052955D140F0040041
:101080003067306F40F00100306756E00020C4F256
:1010900047200021C0F8801EFFF78AFD054600BFEB
:1010A000706F80077FF558AFFFF782FD401B022865
:1010B000F6D9032002B0BDE8F08100BF0027C4F2DA
:1010C000472700203866FFF773FD022D05460DD136
:1010D0003068800140F18A80FFF76AFD401B0228DA
:1010E0004FF00300F4D902B0BDE8F0813068800110
:1010F00073D5FFF75DFD401B02284FF00300F5D9C3
:10110000F1E700BF00210160FFF752FD054600BF77
:10111000306880077FF51DAFFFF74AFD401B0228AE
:101120004FF00300F4D9DEE720F001003067306FA4
:10113000002920F0040030677AD0FFF739FD05461A
:1011400041F28837306F800700F18480FFF730FD6F
:10115000401BB842F6D9032002B0BDE8F08100BFC1
:1011600020F4803030603068002920F48020306026
:101170007AD0FFF71DFD0546306880033FF5CAAE03
:10118000FFF716FD401B6428F6D9032002B0BDE826
:10119000F08100BF7068E16900F480028A4221D1C9
:1011A000216A00F03F028A421CD147F6C071626A90
:1011B0000140B1EB821F15D1A16A4FF6FF73C9033D
:1011C000994300F44032A1F580318A420AD1E16AA4
:1011D00000F07060B0EB016F04D1002002B0BDE8F8
:1011E000F08100BF012002B0BDE8F08104F11C05D0
:1011F0002FCD084340EA8210D9034FF6FF72914386
:10120000A1F5803140EA056008437060012038662E
:10121000FFF7CEFC044600BF30688001DDD4FFF745
:10122000C7FC001B02284FF00300F5D95BE700BFA5
:10123000FFF7BEFC054641F2883700BF306F8007DC
:1012400008D5FFF7B5FC401BB8424FF00300F5D9B5
:1012500049E700BFB8F1000F3FF581AE306C20F0D8
:10126000805030647BE600BFFFF7A2FC054600BF5C
:10127000306880037FF54EAEFFF79AFC401B642870
:101280004FF00300F4D92EE770B528B1416A29B1B7
:1012900000210161142106E0012070BD4168B1F513
:1012A000827F02D01C21002242500026866290F8E4
:1012B000511029B980F85060054600F03DF82846E5
:1012C000022180F8511090E82E0002F482720C681E
:1012D00003F4044324F040040C601A4405F4006352
:1012E00005691A4405F0020345691A4405F0010333
:1012F0008569C4691A4405F400731A4404F038037C
:10130000046A1A4404F08003846A1A4304F4005304
:101310001A430A60436A042202EA154203F01003EA
:101320001A444A60CA6922F40062CA610121466512
:1013300080F85110304670BD80B586B043F2000190
:101340000068C4F20101002288420592CDE903221F
:101350000292019202D006B080BD00BF43F6300079
:101360000092C4F20200436943F48053436143692D
:1013700003F480530093009B0092036843F0010341
:101380000360006800F0010000900098E0200190E8
:101390000220CDE90202032004900520059001F50A
:1013A000504001A9FFF72EFB06B080BD2DE9F041AA
:1013B00084B01D4616460F460446FFF7F9FB94F825
:1013C000511001290ED18046002F4FF0010018BFA7
:1013D000002E03D104B0BDE8F08100BF94F85000A6
:1013E000012803D1022004B0BDE8F081012084F877
:1013F00050000320002184F8510061652763A68610
:10140000E686A163A187E187A0682164B0F5004F5B
:101410002068616407D1016821F040010160016822
:1014200041F4804101600168490603D4016841F03C
:10143000400101606168731EE268B1FA81F1B3FA9C
:1014400083F349095B09B2F5006F41EA030139D121
:1014500031B137F8021BC1602763E08E0138E086A6
:10146000E08E002870D0681C0BD11AE0216B31F897
:10147000022BC2602163E08E0138E086E08E0028F6
:1014800062D0206881688907F0D4FFF791FBA0EB58
:101490000800A842F2D338E0FFF78AFBE08E00286C
:1014A00052D0206881688907F6D5216B31F8022B6C
:1014B000C2602163E08E0138E086E08E0028F0D122
:1014C00042E000BF39B139780173206B01302063ED
:1014D000E08E0138E086E08EB0B3681C0BD123E0CB
:1014E000216B09780173206B01302063E08E013895
:1014F000E086E08E40B3206881688907F0D4FFF76A
:1015000057FBA0EB0800A842F3D3012084F8510058
:10151000002084F85000032004B0BDE8F08100BF33
:10152000FFF746FBE08E78B1206881688907F7D520
:10153000216B09780173206B01302063E08E013844
:10154000E086E08E0028EFD12046022101222B46C2
:10155000CDF8008000F082F8E0B1606D40F020002E
:10156000606520206065A06838B90020029020687E
:10157000C1680291806802900298012084F85100AD
:10158000002084F85000606D002818BF012004B0CE
:10159000BDE8F08140F20800C2F20000006849F6A0
:1015A0008171C1F25E61A0FB0101480D4FF47A71B7
:1015B000484303906068B0F5827F0BD120468021BC
:1015C00000222B46CDF8008000F048F80028C4D156
:1015D000C9E700BF03980028C5D0039801380390DD
:1015E000206881680906BED503990029BBD00399FC
:1015F0000139039181680906B5D503990029B2D054
:1016000003990139039181680906ACD50399002932
:10161000A9D003990139039180680006DAD4A2E7C2
:10162000411E0020B0EB116F1CBF012070474EF22D
:101630001002CEF2000251604EF62351CEF20001AC
:10164000F0230B700721906011607047FEE70000E7
:10165000FEE70000FEE70000704700002DE9F043C0
:1016600081B0089C984615460E468146FFF7A0FAC1
:10167000201A00EB0804FFF79BFA40F20801C2F2BF
:1016800000010968C1F3CB3161430091D9F8001022
:101690008A683240921BB2FA82F2520995423DD0DA
:1016A000074618F1010031D0FFF782FAC01BA042B3
:1016B00038D2009800990028A1F101010091D9F8D1
:1016C0000010896808BF044601EA0600801BB0FAD2
:1016D00080F040098542E7D120E000BF88683040B3
:1016E000801BB0FA80F04009854217D088683040EE
:1016F000801BB0FA80F0400985420FD088683040E6
:10170000801BB0FA80F04009854207D088683040DD
:10171000801BB0FA80F040098542DFD1002001B083
:10172000BDE8F083D9E900014268B1F5827F22F07B
:10173000E00242600BD1D9F80810B1F5004F02D099
:10174000B1F5806F03D1016821F040010160D9F843
:101750002810B1F5005F07D1016821F40051016044
:10176000016841F400510160012089F85100002016
:1017700089F85000032001B0BDE8F08370470000F5
:10178000FFF71CBA70B592B006AC20463021FEF7C8
:1017900001FE002543F640000595CDE90355CDE94E
:1017A00001550095C4F202000168022641F0805103
:1017B0000160006800F080500090009847F200003F
:1017C0000095C4F20000016841F4404101600068E6
:1017D00000F44040009000980120099010200A90E9
:1017E0000E904FF4A8700F900420109007201190D5
:1017F00020460696CDE90C65FFF770FB10B172B676
:10180000FEE700BF0F20CDE901064FF48050CDE97F
:10181000040501A802210395FFF776FA10B172B60C
:10182000FEE700BF12B070BD4EF68850CEF2000049
:10183000016841F47001016070470000FEE700009C
:1018400086B043F6440640F20008C4F20206C4F231
:101850000208FFF7C1F9FFF795FF00250495CDE9D0
:101860000255CDE90055059556F8140C012740F0B6
:10187000010046F8140C56F8140C694600F00100FB
:101880000590059810200090032003904046019792
:10189000FFF7B8F8CDE90255CDE900550595306858
:1018A00040F2700440F4807030603068C2F200048E
:1018B00000F4807005900598A8F56041204640F836
:1018C000041F4FF48031057680F82050C562C7614F
:1018D00080F83050C0E90115C0E903554761FEF7B3
:1018E00077FE18B172B600BFFEE700BFCDE9005722
:1018F0000720251D029069462846FEF7B3FD18B162
:1019000072B600BFFEE700BF002100913068A8F565
:10191000504240F48050306030684FF4827300F4DD
:1019200080500090009840F2BC00C2F200004FF4DA
:1019300000772826C0E900230A22C0E90211C0E985
:101940000411C0E90676C0E90811C0E90A12FFF7E0
:101950009BFC18B172B600BFFEE700BF40F2BC06A8
:10196000C2F200061DE000BF2846FFF71DF82088E0
:10197000274600BA000C27F8020F4046102100222B
:10198000FFF710F93046394602226423FFF70EFDB7
:10199000404610210122FFF705F94FF4FA70FFF7D6
:1019A0001DF82846FEF778FF28460A21FEF7F4FEC8
:1019B0000028D9D12846FEF707FE2080D4E7F1EEB3
:1019C000100A4FF6FF71C0F2C03120EA010040F06A
:1019D0004070E1EE100A70470000000000000000B7
:1019E0000102030406070809081A00080000002085
:1019F00010000000FC010008181A00081000002068
:101A0000080700001C020008010000001000000090
:081A10000024F40000000000B6
:040000050800019955
:00000001FF
