:020000040800F2
:1000000018070020BD010008551E00084D1E0008FD
:10001000511E0008C1040008A120000800000000D3
:100020000000000000000000000000007D1F00082C
:10003000C504000800000000591E0008811F0008C8
:10004000D7010008D7010008D7010008D701000830
:10005000D7010008D7010008D7010008D701000820
:10006000D7010008D7010008D7010008D701000810
:10007000D7010008D7010008D7010008D701000800
:10008000D7010008D7010008D7010008D7010008F0
:10009000D7010008D7010008D7010008D7010008E0
:1000A000D7010008D7010008D7010008D7010008D0
:1000B000D7010008D7010008D7010008D7010008C0
:1000C000D7010008D7010008D7010008D7010008B0
:1000D000D701000895200008D7010008D7010008C3
:1000E000D7010008D7010008D701000800F002F886
:1000F00000F055F814A696E8000CB244B344DA4573
:1001000001D100F04CF8BAE80F000FA696E83000D5
:10011000A5EB040504EB0607AAEB0704A7F101070A
:100120004FEA15154FEA3414A4F10104AC4201D38F
:1001300000F035F813F0010F18BFFB1A43F001036C
:1001400000F001F8DBE71847C8200000E8200000B5
:10015000103A24BF78C878C1FAD8520724BF30C8F3
:1001600030C144BF04680C60704700007047000055
:100170000023002400250026103A28BF78C1FBD8B0
:10018000520728BF30C148BF0B607047752900F087
:100190007F80002070471FB51FBD10B510BD00F057
:1001A00054F91146FFF7F7FF01F07CFF00F072F9F8
:1001B00003B4FFF7F2FF03BC00F07AF90948804767
:1001C00009480047FEE7FEE7FEE7FEE7FEE7FEE739
:1001D000FEE7FEE7FEE7FEE704480549054A064B51
:1001E00070470000851F0008ED000008180100207E
:1001F0001807002018030020180300200FB41CB5B6
:10020000084B06AA7B4469460090059800F005F962
:1002100004460020694600F013F920461CBC5DF836
:1002200014FB0000390200002DE9F0410E4604469F
:10023000002020622046E168884730B3252805D099
:10024000D4E901219047206A401CF2E7E16820468A
:1002500000278847050018D0A5F14100192802D8C9
:1002600020354FF400673246294620462760FFF7C5
:100270008DFF40B1012804D0F61D26F00706083690
:10028000D8E7361DD6E72846DAE7206ABDE8F081D0
:100290002DE9F0410646002410687529314616A55F
:1002A00010D0AFF30080002802DA404213A507E027
:1002B00031688A0701D512A502E0490704D511A5C6
:1002C000012401E0AFF3008000210A2206F1240797
:1002D00009E0B0FBF2FCB0FBF2F302FB1C00303093
:1002E00078541846491C0028F3D123462A46304644
:1002F000BDE8F04100F032B8000000002D00000021
:100300002B000000200000004FF0000200B5134653
:1003100094469646203922BFA0E80C50A0E80C5025
:10032000B1F12001BFF4F7AF090728BFA0E80C50D6
:1003300048BF0CC05DF804EB890028BF40F8042BCF
:1003400008BF704748BF20F8022B11F0804F18BF3C
:1003500000F8012B70477047704770472DE9F04750
:100360000D4699469246044600F124080168880625
:1003700004D5E06921F01001216000E00120A842CD
:1003800001DD471B00E00027A1697A1902EB090093
:10039000081AA0612078C00602D42046AFF300807E
:1003A000002608E0D4E901211AF806009047206AE7
:1003B000401C761C20624E45F4DB2078C0060AD52E
:1003C0002046AFF3008006E0D4E9012130209047B9
:1003D000206A401C2062381EA7F10107F4DC07E008
:1003E000D4E9012118F805009047206A401C2062DA
:1003F000281EA5F10105F3DC2046AFF3008020782C
:10040000000602D50220BDE8F0870120FBE70000CE
:1004100001694A1C02610878704700B58FB0CDE9C8
:1004200001310021059105497944CDE903101146B8
:100430006846FFF7F9FE0FB000BD0000E5FFFFFFC3
:100440000A6802F8010B0A607047754600F02CF844
:10045000AE4605006946534620F00700854618B0B1
:1004600020B5FFF7B9FEBDE820404FF000064FF081
:1004700000074FF000084FF0000BAC46ACE8C00995
:10048000ACE8C009ACE8C009ACE8C00921F007013C
:100490008D46704710B50446AFF300802046BDE896
:1004A0001040FFF785BE0000004870471000002094
:1004B00001491820ABBEFEE726000200704700008D
:1004C000FEE7000070470000014690F82100022876
:1004D00016D10868D1E90FC3026822F00E0202604B
:1004E000026822F001020260012000FA03F2CCF857
:1004F000042081F821000020002281F8202070478C
:10050000042088630120002281F820207047000029
:1005100090F82110022923D1026840F2040C1168DE
:10052000C4F2020C21F00E01116013682F21C4F2F5
:1005300002018A4223F00103136015DD3023C4F267
:1005400002039A421CD04423C4F202039A421BD0F5
:100550005823C4F202039A421CD14FF4803321E0A5
:1005600004218163012070470823C4F202039A42E8
:100570000ED01C23C4F202039A420BD1102311E0C7
:100580004FF480730EE000BF4FF480530AE000BFC9
:10059000012307E00CF168014FF080738A4208BF25
:1005A0004FF480130121CCF8003080F82110416B0A
:1005B0000022002980F8202004BF0020704780B569
:1005C0008847002080BD0000B0B5044600F026F941
:1005D000054640F20000C2F200000078611C18BF1E
:1005E000044400BF00F01AF9401BA042FAD3B0BD8A
:1005F0002DE9F04F82B00E68002E00F0FD8041F230
:100600000042C4F20102042340F2004E904208BFAF
:1006100003234FF6FF7CC4F2010E00930024012354
:10062000C1F2100C4FF0000A4FF000094BE000BF80
:1006300041F20002C4F20102009F904208BF02276B
:1006400004F00C030F229A402BEA020207FA03F38C
:100650004FEA9A051A4346F825204E6840F20C45A9
:10066000F202DEF8082054BF22EA080242EA080239
:10067000C4F20105CEF808202A68B30254BF22EA6A
:10068000080242EA08022A60B303DEF8042054BFDD
:1006900022EA080242EA0802F303CEF80420DEF858
:1006A00000204FF0010354BF22EA080242EA080288
:1006B000CEF800200E680AF1010A36FA0AF204F1B7
:1006C000040400F0998003FA0AFB16EA0B08F1D043
:1006D0004E68664512DC122E56D8DFE806F0350B60
:1006E0004D495555555555555555555555555545DE
:1006F000510000BFD1F80C9046E000BF4FF6FF72EA
:10070000C1F2210296420FDC0022C1F21102964290
:100710001AD00022C1F21202964215D00022C1F274
:100720002102964210D02FE00022C1F2220296420E
:100730000AD00022C1F23102964205D00022C1F255
:100740003202964220D100BF8A684AB1012A14BF02
:10075000C0F814B0C0F810B04FF0080914E000BFA2
:100760004FF0040910E000BFCA6802F104090BE071
:100770004FF0000908E000BFCA6802F1080903E071
:10078000CA6802F10C0900BF02462646B8F5807F10
:1007900024BF0432203E17680F25B54027EA05051F
:1007A00009FA06F635431560CA79D2067FF582AF9D
:1007B00041F21803C4F202031A68AEF57E7642F0E5
:1007C00001021A601A6802F001020192019A2AF0ED
:1007D000030256F802B040F60002C4F20102904251
:1007E00008D040F60042C4F2010290427FF420AFEC
:1007F000012725E7002723E702B0BDE8F08F0000BE
:10080000C26802EA0103914341EA03410161704772
:10081000002A08BF090401617047000040F214106B
:10082000C2F200000068704740F2000040F214116C
:10083000C2F20000C2F2000100780A6810440860A9
:100840007047000080B542F20000C4F20200016867
:1008500041F010010160032000F08CF80F2000F03F
:1008600005F800F027F8002080BD000070B540F2C8
:100870000006C2F2000640F208013278C2F200011E
:100880004FF47A730968B3FBF2F20446B1FBF2F15C
:10089000084600F081FE0F2C4FF0010508D838B94A
:1008A0004FF0FF3021460022002500F037F8746039
:1008B000284670BD82B041F21800C4F202000168FF
:1008C000022241F001010160016801F00101019182
:1008D0000199416841F080514160406800F08050CA
:1008E000009000980420C4F20100016862F31A61CC
:1008F000016002B070470000002848BF704700F058
:100900001F01012202FA01F11C2202EAD0004EF27C
:100910000012CEF2000281507047000010B54EF672
:100920000C5CCEF2000CDCF80030C3F3022E8EF02B
:100930000704042C28BF0424BEF103034FF0FF3E3C
:100940000EFA04F438BF0023A14399400EFA03F3D2
:100950009A43114300F00F0200F160430901043A89
:1009600003F564436244002848BF02F10C03197088
:1009700010BD00004EF60C51CEF200010A684FF691
:10098000FF031A4060F30A2242F0806040F0FD70DD
:1009900008607047002804BF012070472DE9F0432C
:1009A00081B042F20008C4F202080446D8F8000000
:1009B0000D4600F0070081420CD9D8F8000020F065
:1009C00007002843C8F80000D8F8000000F007002E
:1009D000A8426CD1206841F204098107C4F20209DF
:1009E00017D5410705D5D9F8001041F4E061C9F8E1
:1009F0000010010705D5D9F8001041F46051C9F87D
:100A00000010D9F80010A26821F0F0011143C9F8D4
:100A10000010C00742D1D8F8000000F0070085425E
:100A20000CD2D8F8000020F007002843C8F80000D6
:100A3000D8F8000000F00700A84238D1206841072C
:100A400007D5D9F80010E26821F4E0611143C9F834
:100A50000010000708D5D9F80000216920F4605083
:100A600040EAC100C9F80000D9F8002002F00C00EB
:100A7000082841F20020C0F27A004DD142F2FE1364
:100A8000C2F38341C0F60003595CD20338D440F668
:100A90000010C0F23D0048433EE000BF606859F8D6
:100AA000041C022808D0012826D1890306D401207D
:100AB00001B0BDE8F08300BF8901F8D5D9F8001076
:100AC00021F003010843C9F80000FFF7A7FE06461E
:100AD00041F28837D9F80000616800F00C00B0EBF3
:100AE000810F98D0FFF79AFE801BB842F2D90320FD
:100AF00001B0BDE8F08300BF8907D8D5DEE700BFAD
:100B0000D9F8002042F2FC13C2F34042C0F60003C1
:100B10009A5C4843B0FBF2F0D9F8001042F2E412BC
:100B2000C1F30311C0F60002515C40F2080220FA42
:100B300001F140F20400C2F200000068C2F20002BB
:100B40001160FFF793FE002001B0BDE8F0830000C4
:100B500040F2080041F20401C2F20000C4F20201B6
:100B60000068096842F2F412C1F30221C0F60002E3
:100B7000515CC8407047000040F2080041F2040197
:100B8000C2F20000C4F202010068096842F2F412E5
:100B9000C1F3C221C0F60002515CC840704700009A
:100BA000002804BF012070472DE9F04182B00446BF
:100BB000007841F20006C007C4F202060CD070684B
:100BC00000F00C00042840F081803068800303D5D9
:100BD0006068002800F04681207880071BD5706887
:100BE00010F00C0F09D0706800F00C00082840F0DD
:100BF00087807068C00300F183803068800703D568
:100C00002069012840F02E813068616920F0F800E9
:100C100040EAC10030602078000713D420784007F4
:100C20002CD4E569002D00F01881706800F00C00EC
:100C3000082840F0A780012D40F00481012002B077
:100C4000BDE8F081A069002800F084800020C4F293
:100C500042200121C0F88014FFF7E0FD054600BFE7
:100C6000706A800700F1B280FFF7D8FD401B0228B0
:100C7000F6D9032002B0BDE8F08100BFF0695FEA59
:100C8000C00808D4F06940F08050F061F06900F0CD
:100C900080500090009847F20007C4F200073868BF
:100CA000C00549D4386840F480703860FFF7B6FD5D
:100CB000054600BF3868C0053ED4FFF7AFFD401BB6
:100CC0006428F7D9032002B0BDE8F081706800F015
:100CD0000C00082803D17068C0033FF576AF616847
:100CE0003068002900F00C81B1F5A02F00F00081E0
:100CF000B1F5803F40F01A8140F480301CE100BF24
:100D00002069002840F20000C4F2422000F08880F0
:100D100001210160FFF782FD054600BF30688007B2
:100D20003FF572AFFFF77AFD401B0228F6D903208A
:100D300002B0BDE8F08100BFE168306A002900F030
:100D40009D80052900F09280012940F0AF8040F09D
:100D50000100B1E00020C4F242200021C0F880145C
:100D6000FFF75CFD054600BF706A80077FF556AF50
:100D7000FFF754FD401B0228F6D9032002B0BDE85E
:100D8000F08100BF0027C4F2422700203866FFF739
:100D900045FD022D05460DD13068800140F1DE8011
:100DA000FFF73CFD401B02284FF00300F4D902B0CE
:100DB000BDE8F081306880014FD5FFF72FFD401B63
:100DC00002284FF00300F5D9F1E700BF40F2080018
:100DD000C2F20000006844F6D351C1F26201A0FBE8
:100DE0000101480A019000BF00BF0198411E002880
:100DF00001913FF413AF00BF0198411E00280191FB
:100E00003FF40CAF00BF0198411E002801913FF450
:100E100005AF00BF0198411E00280191E4D1FDE615
:100E200000210160FFF7FAFC054600BF306880072B
:100E30007FF5F1AEFFF7F2FC401B02284FF00300F4
:100E4000F4D9B4E77068216A00F480328A4209D18B
:100E5000616A00F47010884204D1002002B0BDE83D
:100E6000F08100BF012002B0BDE8F08140F0040035
:100E70003062306A40F001001EE000BF20F0010047
:100E80003062306A20F004003062FFF7C7FC05468C
:100E900041F28837306A800720D5FFF7BFFC401B3E
:100EA000B8424FF00300F5D981E700BF20F0010000
:100EB0003062306A20F004003062FFF7AFFC054674
:100EC00041F28837306A800708D4FFF7A7FC401B3F
:100ED000B842F7D9032002B0BDE8F081B8F1000FA5
:100EE0003FF59FAEF06920F08050F06199E600BFB9
:100EF00040F480203060306840F480301CE000BF57
:100F000020F480303060306820F480203060FFF7BB
:100F100085FC0546306880037FF55EAEFFF77EFCFA
:100F2000401B64284FF00300F4D940E720F48030E0
:100F30003060306820F480203060FFF76FFC054699
:100F4000306880033FF548AEFFF768FC401B64281B
:100F5000F6D9032002B0BDE8F08100BF206AB0F5E9
:100F6000803F05D17168A26821F40031114371609E
:100F70007168626A21F474111143084370600120A2
:100F80003866FFF74BFC0446306880013FF565AFDB
:100F9000FFF744FC001B02284FF00300F4D906E7DA
:100FA00070B528B1416A29B100210161142106E020
:100FB000012070BD4168B1F5827F02D01C21002262
:100FC00042500026866290F8511029B980F850608E
:100FD000054600F039F82846022180F8511090E8C3
:100FE0002E0002F482720C6803F4044324F04004DF
:100FF0000C601A4405F4006305691A4405F0020305
:1010000045691A4405F001038569C4691A4405F469
:1010100000731A4404F03803046A1A4404F080038D
:10102000846A1A4304F400531A430A60042202EA51
:1010300015424A60CA6922F40062CA61012146650C
:1010400080F85110304670BDB0B586B040F600044F
:10105000C4F20104006804F5205200219042059179
:10106000CDE90311029101D006B0B0BD41F21800E4
:10107000C4F20200026802AD42F4805202600268CB
:1010800002F480520192019A026842F00402026066
:10109000006800F0040001900198B020CDE9020141
:1010A000049120462946FFF7A3FA4020029002202F
:1010B00003900320059020462946FFF799FA06B0D1
:1010C000B0BD00002DE9F04182B0044690F8510017
:1010D000012819D160681D4617460E46B0F5827F7B
:1010E00001D1A068A0B1FFF799FB8046002E4FF018
:1010F000010018BF002F03D102B0BDE8F08100BF8E
:1011000094F85000012811D1022002B0BDE8F0810E
:10111000042084F851002046314632463B46009573
:1011200000F0D0F802B0BDE8F08100BF012084F8E3
:1011300050000420002184F851006165A663A78750
:10114000E7872163A186E186A2682068B2F5004F97
:101150002164616438D00168490640D5E168E08FB8
:10116000002944D000287BD0681C0CD11BE000BFB4
:10117000C068A16B21F8020BA163E08F0138E08702
:10118000E08F00286CD020688168C907F0D1FFF794
:1011900045FBA0EB0800A842F2D342E0FFF73EFB7C
:1011A000E08F00285CD020688168C907F6D0C0684D
:1011B000A16B21F8020BA163E08F0138E087E08F7B
:1011C0000028F0D14CE000BF016821F0400101602F
:1011D000016821F48041016001684906BED40168BC
:1011E00041F040010160E168E08F0029BAD1B8B355
:1011F000681C0CD124E000BF007BA16B0870A06BC1
:101200000130A063E08F0138E087E08F40B32068B1
:101210008168C907F0D1FFF701FBA0EB0800A842E5
:10122000F3D3012084F85100002084F850000320FB
:1012300002B0BDE8F08100BFFFF7F0FAE08F78B1AF
:1012400020688168C907F7D0007BA16B0870A06B8C
:101250000130A063E08F0138E087E08F0028EFD1F4
:101260006068B0F5827F11D1A068B0F5004F02D060
:10127000B0F5806F0AD12168B0F5806F0A6822F05E
:1012800040020A6002D12046012101E0204680216F
:1012900000222B46CDF8008000F0E0FD28B1606D03
:1012A00040F02000606520206065012084F8510036
:1012B000002084F85000606D002818BF012002B0A3
:1012C000BDE8F0812DE9F04383B01E4615460F4678
:1012D0000446FFF7A3FA94F851108146012909D179
:1012E000002F4FF0010018BF002D0FD103B0BDE853
:1012F000F08300BF6068B0F5827F0DD104294FF004
:101300000200F3D1A1680029EAD0EFE7002EEDD06A
:1013100094F85000012803D1022003B0BDE8F08307
:10132000012084F8500094F85100002104281CBFCB
:10133000052084F851006165A563E687A6872763C9
:10134000E6862068A686216461640168490603D4A4
:10135000016841F0400101606168731EE268B1FA02
:1013600081F1B3FA83F3DDF8288049095B09B2F50E
:10137000006F41EA030165D131B137F8021BC1604A
:101380002763E08E0138E086012518F1010032D193
:1013900002E000BFFFF742FAE08E18B9E08F0028A4
:1013A00000F0B8802068816889070CD5E18E51B1C2
:1013B000012D08D1216B002531F8022BC260216379
:1013C000E18E0139E1868168C907E3D0E18F002908
:1013D000E0D0C068A16B012521F8020BA163E08F6A
:1013E0000138E087D6E700BFFFF718FAA0EB090045
:1013F000404580F0AF80E08E18B9E08F002800F003
:1014000089802068816889070CD5E18E51B1012D52
:1014100008D1216B002531F8022BC2602163E18ED7
:101420000139E1868168C907DED0E18F0029DBD070
:10143000C068A16B012521F8020BA163E08F013880
:10144000E087D1E739B139780173206B013020632F
:10145000E08E0138E086012518F1010032D101E06B
:10146000FFF7DCF9E08E10B9E08F002852D0206839
:10147000816889070ED5E18E61B1012D0AD1216BFA
:10148000002509780173216B206801312163E18E09
:101490000139E1868168C907E2D0E18F0029DFD0F8
:1014A000C068A16B01250870A06B0130A063E08FBC
:1014B0000138E087D4E700BFFFF7B0F9A0EB0900DF
:1014C000404547D2E08E08B9E08F18B320688168A4
:1014D00089070ED5E18E61B1012D0AD1216B00255E
:1014E00009780173216B206801312163E18E013994
:1014F000E1868168C907DFD0E18F0029DCD0C068B0
:10150000A16B01250870A06B0130A063E08F01384A
:10151000E087D1E72046022101224346CDF8009022
:1015200000F09CFC40B92046802100224346CDF8C3
:10153000009000F093FCB8B1606D40F02000606551
:1015400020206065002084F85000012003B0BDE831
:10155000F08300BF012084F85100002084F850007F
:10156000032003B0BDE8F083A06838B900200290E2
:101570002068C1680291806802900298012084F876
:101580005100002084F85000606D002818BF012031
:1015900003B0BDE8F0830000411E0020B0EB116FE6
:1015A0001CBF012070474EF21002CEF200025160C3
:1015B0004EF62351CEF20001F0230B70072190600C
:1015C000116070477047000070470000B0B582B0EE
:1015D00001680A68CC684B6902F02F05202D04F0E1
:1015E000200505D125B102B0BDE8B04000F0D2BC65
:1015F0005FEA027C1EBF03F0010E04F4907313EB4C
:101600000E0341D1036BD50618D5012B16D114F06A
:10161000100313D0002201920A6801924A680192D5
:10162000019A496949064BD4818DC28DC38D002B27
:1016300018BF914240F0F48102B0B0BD13062DD521
:1016400014F080032AD090F84120212AF4D1826836
:10165000B2F5805F03D10269002A00F06782026A56
:10166000531C036212784A60C28C013A1304C2848C
:10167000E2D1C86820F08000C860C86840F040002F
:10168000C86002B0B0BD00BFD30718BF14F48073A8
:1016900040F0D080530700F1D380D8E05206CBD57C
:1016A00014F04002C8D0CA6822F04002CA6020216B
:1016B00080F8411002B0BDE8B04000F0C5BB00BFEB
:1016C000C16B0A68526893B2002BB5D0858DAB42CE
:1016D000B2D2C2858969202900F0A180016851E851
:1016E000031F026821F4807142E80313DBB1016833
:1016F00051E8031F026821F4807142E8031393B19B
:10170000016851E8031F026821F4807142E8031365
:101710004BB1016851E8031F026821F4807142E86F
:101720000313002BDAD1016851E8051F026821F08C
:10173000010142E80513C3B3016851E8051F0268BF
:1017400021F0010142E805137BB3016851E8051F50
:10175000026821F0010142E8051333B3016851E842
:10176000051F026821F0010142E80513002BDAD1C0
:101770001BE000BF016851E8051F026821F040012D
:1017800042E80513DBB1016851E8051F026821F04A
:10179000400142E8051393B1016851E8051F026852
:1017A00021F0400142E805134BB1016851E8051FE3
:1017B000026821F0400142E80513002BDAD1202114
:1017C00080F8421000210163016851E8031F02689C
:1017D00021F0100142E80313DBB1016851E8031F57
:1017E000026821F0100142E8031393B1016851E847
:1017F000031F026821F0100142E803134BB1016896
:1018000051E8031F026821F0100142E80313002B86
:10181000DAD1C16B04460846FEF756FE2046022187
:101820004163818DC28D891A89B202B0BDE8B04092
:10183000FFF7C8BE436C43F001034364530706D56A
:10184000BEF1000F03D0436C43F0020343649307DF
:1018500006D5BEF1000F03D0436C43F0040343648C
:10186000BCF1000F06D55EEA050303D0436C43F0DC
:1018700008034364436C002B3FF4DEAE920605D5AB
:1018800025B1044600F086FB216820464969426C78
:1018900001F0400102F00802891800F0B98000BF91
:1018A000016851E8031F026821F4907142E80313B4
:1018B000BBB3016851E8031F026821F4907142E84C
:1018C000031373B3016851E8031F026821F4907198
:1018D00042E803132BB3016851E8031F026821F4A7
:1018E000907142E80313002BDAD11AE0016851E845
:1018F000051F026821F0010142E80513DBB1016810
:1019000051E8051F026821F0010142E8051393B177
:10191000016851E8051F026821F0010142E8051342
:101920004BB1016851E8051F026821F0010142E84E
:101930000513002BDAD1016B012924D1016851E88C
:10194000031F026821F0100142E80313DBB10168B4
:1019500051E8031F026821F0100142E8031393B11C
:10196000016851E8031F026821F0100142E80313E7
:101970004BB1016851E8031F026821F0100142E8F1
:101980000313002BDAD1202180F8421000210163DB
:1019900001684969490640F1C380016851E8051FA3
:1019A000026821F0400142E80513DBB1016851E80B
:1019B000051F026821F0400142E8051393B1016858
:1019C00051E8051F026821F0400142E805134BB1C0
:1019D000016851E8051F026821F0400142E8051343
:1019E000002BDAD1C16B002900F09A8041F6897290
:1019F000C0F60002044608464A63FEF789FD002847
:101A00003FF41AAEE06B416B02B0BDE8B04008474E
:101A10000446FFF7D9FD0020606402B0B0BD00BFEE
:101A2000891A00BF026852E8032F036822F49072FB
:101A300043E80325BDB3026852E8032F036822F48C
:101A4000907243E8032575B3026852E8032F0368D8
:101A500022F4907243E803252DB3026852E8032F65
:101A6000036822F4907243E80325002DDAD11AE0CE
:101A7000026852E8052F036822F0010243E80525B9
:101A8000DDB1026852E8052F036822F0010243E845
:101A9000052595B1026852E8052F036822F001027E
:101AA00043E805254DB1026852E8052F036822F08E
:101AB000010243E80525002DDAD1202280F84220DA
:101AC00000220263026852E8032F036822F010022A
:101AD00043E80325DDB1026852E8032F036822F0D2
:101AE000100243E8032595B1026852E8032F03680A
:101AF00022F0100243E803254DB1026852E8032F9B
:101B0000036822F0100243E80325002DDAD10222F7
:101B100089B2426302B0BDE8B040FFF753BD00BFD9
:101B200002B0BDE8B040FFF74FBD00BF026A32F817
:101B3000023B6FF35F234B60026295E5002804BF10
:101B40000120704710B5044690F8410028B90020E4
:101B500084F84000204600F063F8242084F8410017
:101B60002068D4E90212C36823F40053C3600369F8
:101B700023F440531A430261D4E904231143C26899
:101B8000194341F20C639A431143C1604169A26950
:101B900021F44071114343F60002C4F20102904265
:101BA000416103D0FEF7D4FF02E000BFFEF7E4FF7F
:101BB000D4E90023192148439900B0FBF1F048F221
:101BC0001F5CC5F2EB1CA0FB0C314FF69C7349095E
:101BD000C0F6FF7301FB0300322303EB0010A0FBF0
:101BE0000C03F02000EA531000EB0110C3F3431183
:101BF000084490601069202120F4904010615069E1
:101C000020F02A005061D06840F40050D0600020DD
:101C1000606484F8411084F84210606310BD0000D5
:101C200070B586B040F60004C4F20104006804F503
:101C30004051002688420596CDE90366029601D000
:101C400006B070BD41F21800C4F20200016802AD96
:101C500041F480410160016801F4804101910199E2
:101C6000016841F0040101600068294600F00400A9
:101C7000019001984FF4007002900220039003201D
:101C800005902046FEF7B4FC4FF48060CDE90206D3
:101C9000204629460496FEF7ABFC252000210022B1
:101CA000FEF73CFE2520FEF727FE06B070BD0000C3
:101CB000704700002DE9F04381B0044690F84100E0
:101CC000202809D100294FF0010018BF002A07D1B0
:101CD00001B0BDE8F08300BF022001B0BDE8F08391
:101CE0000020606421201D460E4684F841001746FE
:101CF000FEF794FDA784E784A1688146B1F5805F73
:101D000002D1206900285DD037460020E28C21688E
:101D1000002A5DD06A1C24D0002D4AD0804600BF26
:101D20000868000608D4FEF779FDA0EB0900A84278
:101D30007AD82168C868F3E717B117F8010B04E0F7
:101D400038F8020B00276FF35F204860E08C013801
:101D5000E084E08C0028E3D13AE000BF0A68120674
:101D600009D40A68120606D40A6812065CBF0A681B
:101D70005FEA0262F2D51FB117F8012B05E000BF40
:101D800030F8022B00276FF35F224A60E28C013AA1
:101D9000E284E28C002AE4D11AE000BF30F8022B82
:101DA00000276FF35F224A60E28C013AE284E28C02
:101DB00072B10A68120635D5002FEFD017F8012B43
:101DC000F1E700BF00273046E28C2168002AA1D14C
:101DD000086840061ED42DB3681C14D1086840065C
:101DE0002AD40868400627D40868400624D4086826
:101DF00040064FF00000F1D50DE000BF2068C1683B
:101E00000068400618D4FEF709FDA0EB0900A842BF
:101E1000F4D909E00020202184F8411001B0BDE888
:101E2000F08300BFFEF7FAFC0320202184F8411064
:101E300001B0BDE8F08300BF0020202184F84110EC
:101E400001B0BDE8F083000070470000FEE700002D
:101E5000FEE70000FEE70000704700002DE9F043B8
:101E600081B0089C984615460E468146FEF7D6FC82
:101E7000201A00EB0804FEF7D1FC40F20801C2F280
:101E800000010968C1F3CB3161430091D9F800101A
:101E90008A683240921BB2FA82F2520995423DD0D2
:101EA000074618F1010031D0FEF7B8FCC01BA04274
:101EB00038D2009800990028A1F101010091D9F8C9
:101EC0000010896808BF044601EA0600801BB0FACA
:101ED00080F040098542E7D120E000BF88683040AB
:101EE000801BB0FA80F04009854217D088683040E6
:101EF000801BB0FA80F0400985420FD088683040DE
:101F0000801BB0FA80F04009854207D088683040D5
:101F1000801BB0FA80F040098542DFD1002001B07B
:101F2000BDE8F083D9E900014268B1F5827F22F073
:101F3000E00242600BD1D9F80810B1F5004F02D091
:101F4000B1F5806F03D1016821F040010160D9F83B
:101F50002810B1F5005F07D1016821F4005101603C
:101F6000016841F400510160012089F8510000200E
:101F700089F85000032001B0BDE8F08370470000ED
:101F8000FEF752BC70470000406A0021C185C18441
:101F9000FFF71ABB81B090F84210222921D1836843
:101FA0000246B3F5805F09D152F8281F52F8183C59
:101FB000002B63D003685B680AE000BF52F8281F5B
:101FC00013B90369002BF5D003685B6803F07F0346
:101FD0000B70116801311160C18D01390A04C1858E
:101FE00002D001B0704700BF0168CA6822F0200229
:101FF000CA60CA6822F48072CA604A6922F001028B
:102000004A61202180F8421000214163026B012ABD
:102010003CD10163016851E8031F026821F01001FF
:1020200042E80313DBB1016851E8031F026821F0A5
:10203000100142E8031393B1016851E8031F0268DD
:1020400021F0100142E803134BB1016851E8031F6E
:10205000026821F0100142E80313002BDAD1016875
:102060000A68D20606D5002200920A6800924968E2
:1020700000910099818D01B0FFF7A4BA02685268FF
:102080006FF35F2221F8022B8162A5E701B0FFF711
:102090000FBE000040F27400C2F20000FFF796BAD3
:1020A000FEE7000090B041F20008C4F20108FEF71C
:1020B000C9FB0DF1180909F104002421FEF724F9E8
:1020C000022401260025484606940A960D95FEF73F
:1020D00067FD0F20CDE9010501A80021CDE90355D9
:1020E0000595FEF757FC41F21800CDE90855CDE9FA
:1020F0000655C4F202000168002241F0100101609F
:1021000001684FF4005701F0100101910199016835
:1021100041F00401016000684FF4005100F0040038
:10212000019001984046FEF773FB06A94046CDE9B1
:102130000676CDE90854FEF75BFA40F2BC0608F5D6
:102140000050C2F20006C6E900050A20C6E90A509E
:102150003046C6E90255C6E90455B561C6E90855D9
:10216000FEF71EFF40F27004C2F2000408F5205191
:10217000204640F8041F4FF4E1310C22C0E901155C
:10218000C0E90355C0E90525C561FFF7D7FCA71CC9
:102190000FF2440A251D00BF3046394602224FF097
:1021A000FF33FEF78FFF0028F6D16288484651467C
:1021B0002280FEF723F882B2284649464FF0FF33CB
:1021C000FFF778FD40464FF40051FEF719FB4FF43E
:1021D000FA70FEF7F9F9DFE74144433A2025750D1F
:1021E0000A000000000000000000000001020304DB
:1021F00006070809000000000102030401020203AF
:102200000405060708090A0B0C0D0E0F101000003C
:1022100030220008000000201000000050010008DB
:10222000402200081000002008070000700100088C
:10223000010000001000000000127A000000000001
:04000005080000ED02
:00000001FF
